:020000040000FA
:020000000E29C7
:08000800162882073F3406347C
:100010005B344F3466346D347D3407347F346F3451
:1000200077347C3439345E3479347134F000030E23
:10003000F10083120A08F2008A010B192D284308E7
:10004000003E03192628C30B26283D2172088A008A
:10005000710E8300F00E700E09000B11F30A730885
:10006000203A031D1D28F301F5183C207708003ABB
:10007000031DC52185201D28751C44287408003ADD
:10008000031D6B287510080074080F3A031D4F28D4
:1000900075140800F40195019712171208007408EE
:1000A0000F3A031DF40A7408741C171274181716FB
:1000B000F41C9712F4189716741D15107419151462
:1000C000F41D9510F419951415119511151295122A
:1000D0001513951308007408003A031DF403532800
:1000E0000F390520FF3A031383168600861D8511FC
:1000F000861985158611831286010800F80A78088A
:100100003C3A031D4F28F8014A28BE0A3E080A3A25
:10011000031D0800BE01BD0A3D08063A031D080084
:10012000BD01B40A34080A3A031DB228B401B30A67
:100130003308063A031DB2283B08BD003C08BE0048
:10014000B301B20A32080A3A031DA828B201B10A63
:100150003108023A031DB2283208043A031DB228BE
:10016000B201B1017808003A031D7E283208370237
:10017000031D080031083602031D08003408390247
:10018000031D080033083802031D08007E28BC2127
:10019000F301F401F501F601F801C301B101B20167
:1001A000B301B401BD01BE01B6010630B700B8010C
:1001B000B9010030D021BB000130D021BC00033098
:1001C000FB003B08053C03187B103C08093C031866
:1001D000FB107B08003A031DB2210C30B0000A303E
:1001E000B5000E30BA000230B1000230B200053066
:1001F000B7000330B800080092018B010830831665
:100200009200831295019712171203138316861119
:1002100083120C30970004309200080064008B01B8
:1002200003138316F7308500FF308600861185158D
:100230008E1188308100831207309F00850186016E
:100240008313FA30C821FA30C821FA30C821FA30B5
:10025000C821FC2083120313C7208B168B170519A6
:10026000362185184B21FA30C8212F2983201E30D2
:10027000F700BC210830C3000800F60A76080E3AE1
:100280000319F6017608003A0319BC292F307607C6
:1002900084000008702883201E30F7007608003A9A
:1002A000031908007608013A031908007608063A8F
:1002B0000319080076080B3A031D6429F51C62290E
:1002C000F5100800F51408002F3076078400800A26
:1002D0007608023A03199B297608073A03199B29E5
:1002E0007608043A031991297608093A03199129E5
:1002F00076080C3A031991297608033A03198429E0
:100300007608083A031D8C2984030008FB00840A40
:100310007B08023A0319962900080A3A031980015A
:100320009F290008063A031980019F290008043A12
:10033000031980019F290008033A031980017608F8
:100340000C3A0319A82176080D3A0319AD21462964
:100350000030FB000008D62108000130FB00000837
:10036000D6210800BB01BC010030FB000030D621C3
:100370000130FB000030D629FF30031383168600BE
:1003800086118515831286010800F70B08004129A4
:10039000C0000330C100C10BCB29C00BC929080024
:1003A00083169B001C141A0883120800FA009C187C
:1003B000D6297B089B007A089A0003108B1B031434
:1003C00083161C158B1355309D00AA309D009C147C
:1003D0001C11831203188B1708008312031320309B
:1003E00084008001840A841FF129831AF929831665
:0C03F000EF29031B080003178312EF29FC
:02400E00003F71
:00000001FF
